{
  "contractName": "MedicalRecords",
  "abi": [
    {
      "inputs": [],
      "stateMutability": "nonpayable",
      "type": "constructor"
    },
    {
      "anonymous": false,
      "inputs": [
        {
          "indexed": true,
          "internalType": "address",
          "name": "patientAddress",
          "type": "address"
        },
        {
          "indexed": true,
          "internalType": "address",
          "name": "accessAddress",
          "type": "address"
        },
        {
          "indexed": false,
          "internalType": "uint256",
          "name": "expiryTime",
          "type": "uint256"
        }
      ],
      "name": "ConsentGiven",
      "type": "event"
    },
    {
      "anonymous": false,
      "inputs": [
        {
          "indexed": true,
          "internalType": "address",
          "name": "doctorAddress",
          "type": "address"
        }
      ],
      "name": "DoctorRegistered",
      "type": "event"
    },
    {
      "anonymous": false,
      "inputs": [
        {
          "indexed": true,
          "internalType": "address",
          "name": "patientAddress",
          "type": "address"
        },
        {
          "indexed": false,
          "internalType": "string",
          "name": "patientId",
          "type": "string"
        }
      ],
      "name": "PatientRegistered",
      "type": "event"
    },
    {
      "anonymous": false,
      "inputs": [
        {
          "indexed": true,
          "internalType": "address",
          "name": "patientAddress",
          "type": "address"
        },
        {
          "indexed": false,
          "internalType": "uint256",
          "name": "recordId",
          "type": "uint256"
        },
        {
          "indexed": false,
          "internalType": "string",
          "name": "recordType",
          "type": "string"
        }
      ],
      "name": "RecordAdded",
      "type": "event"
    },
    {
      "inputs": [
        {
          "internalType": "address",
          "name": "_doctorAddress",
          "type": "address"
        }
      ],
      "name": "registerDoctor",
      "outputs": [],
      "stateMutability": "nonpayable",
      "type": "function"
    },
    {
      "inputs": [
        {
          "internalType": "string",
          "name": "_name",
          "type": "string"
        },
        {
          "internalType": "string",
          "name": "_id",
          "type": "string"
        }
      ],
      "name": "registerPatient",
      "outputs": [],
      "stateMutability": "nonpayable",
      "type": "function"
    },
    {
      "inputs": [
        {
          "internalType": "address",
          "name": "_patientAddress",
          "type": "address"
        },
        {
          "internalType": "string",
          "name": "_recordType",
          "type": "string"
        },
        {
          "internalType": "string",
          "name": "_recordHash",
          "type": "string"
        },
        {
          "internalType": "string",
          "name": "_doctorName",
          "type": "string"
        },
        {
          "internalType": "string",
          "name": "_metadata",
          "type": "string"
        }
      ],
      "name": "addRecord",
      "outputs": [],
      "stateMutability": "nonpayable",
      "type": "function"
    },
    {
      "inputs": [
        {
          "internalType": "address",
          "name": "_accessor",
          "type": "address"
        },
        {
          "internalType": "uint256",
          "name": "_durationInDays",
          "type": "uint256"
        }
      ],
      "name": "grantConsent",
      "outputs": [],
      "stateMutability": "nonpayable",
      "type": "function"
    },
    {
      "inputs": [
        {
          "internalType": "address",
          "name": "_accessor",
          "type": "address"
        }
      ],
      "name": "revokeConsent",
      "outputs": [],
      "stateMutability": "nonpayable",
      "type": "function"
    },
    {
      "inputs": [],
      "name": "getPatientDetails",
      "outputs": [
        {
          "internalType": "string",
          "name": "",
          "type": "string"
        },
        {
          "internalType": "string",
          "name": "",
          "type": "string"
        },
        {
          "internalType": "uint256",
          "name": "",
          "type": "uint256"
        }
      ],
      "stateMutability": "view",
      "type": "function",
      "constant": true
    },
    {
      "inputs": [
        {
          "internalType": "uint256",
          "name": "_recordId",
          "type": "uint256"
        }
      ],
      "name": "getRecordDetails",
      "outputs": [
        {
          "internalType": "string",
          "name": "",
          "type": "string"
        },
        {
          "internalType": "string",
          "name": "",
          "type": "string"
        },
        {
          "internalType": "uint256",
          "name": "",
          "type": "uint256"
        },
        {
          "internalType": "address",
          "name": "",
          "type": "address"
        },
        {
          "internalType": "string",
          "name": "",
          "type": "string"
        },
        {
          "internalType": "string",
          "name": "",
          "type": "string"
        }
      ],
      "stateMutability": "view",
      "type": "function",
      "constant": true
    },
    {
      "inputs": [
        {
          "internalType": "address",
          "name": "_patientAddress",
          "type": "address"
        },
        {
          "internalType": "address",
          "name": "_accessor",
          "type": "address"
        }
      ],
      "name": "checkConsent",
      "outputs": [
        {
          "internalType": "bool",
          "name": "",
          "type": "bool"
        }
      ],
      "stateMutability": "view",
      "type": "function",
      "constant": true
    },
    {
      "inputs": [
        {
          "internalType": "address",
          "name": "_address",
          "type": "address"
        }
      ],
      "name": "isDoctor",
      "outputs": [
        {
          "internalType": "bool",
          "name": "",
          "type": "bool"
        }
      ],
      "stateMutability": "view",
      "type": "function",
      "constant": true
    }
  ],
  "bytecode": "0x608060405234801561001057600080fd5b5033600360006101000a81548173ffffffffffffffffffffffffffffffffffffffff021916908373ffffffffffffffffffffffffffffffffffffffff160217905550611f0f806100616000396000f3fe608060405234801561001057600080fd5b50600436106100935760003560e01c8063996440c611610066578063996440c61461011c5780639d15e77f1461014c578063d1a4862714610168578063d8c0867314610184578063f2f4adae146101b957610093565b80631ab64e4b14610098578063413e63ad146100c8578063699ca998146100e457806380911fa414610100575b600080fd5b6100b260048036038101906100ad9190611259565b6101d9565b6040516100bf91906112b4565b60405180910390f35b6100e260048036038101906100dd9190611415565b610267565b005b6100fe60048036038101906100f99190611500565b6105c5565b005b61011a6004803603810190610115919061152d565b6106f3565b005b61013660048036038101906101319190611500565b6108f3565b60405161014391906112b4565b60405180910390f35b610166600480360381019061016191906115db565b610949565b005b610182600480360381019061017d9190611500565b610ae0565b005b61019e6004803603810190610199919061161b565b610bf3565b6040516101b0969594939291906116e5565b60405180910390f35b6101c1610fe1565b6040516101d093929190611762565b60405180910390f35b600080600460008573ffffffffffffffffffffffffffffffffffffffff1673ffffffffffffffffffffffffffffffffffffffff16815260200190815260200160002060008473ffffffffffffffffffffffffffffffffffffffff1673ffffffffffffffffffffffffffffffffffffffff16815260200190815260200160002054905042811191505092915050565b600260003373ffffffffffffffffffffffffffffffffffffffff1673ffffffffffffffffffffffffffffffffffffffff16815260200190815260200160002060009054906101000a900460ff166102f3576040517f08c379a00000000000000000000000000000000000000000000000000000000081526004016102ea90611819565b60405180910390fd5b6000808673ffffffffffffffffffffffffffffffffffffffff1673ffffffffffffffffffffffffffffffffffffffff16815260200190815260200160002060000160009054906101000a900460ff16610381576040517f08c379a000000000000000000000000000000000000000000000000000000000815260040161037890611885565b60405180910390fd5b60008060008773ffffffffffffffffffffffffffffffffffffffff1673ffffffffffffffffffffffffffffffffffffffff1681526020019081526020016000206003015490506040518060e001604052808281526020018681526020018581526020014281526020013373ffffffffffffffffffffffffffffffffffffffff16815260200184815260200183815250600160008873ffffffffffffffffffffffffffffffffffffffff1673ffffffffffffffffffffffffffffffffffffffff168152602001908152602001600020600083815260200190815260200160002060008201518160000155602082015181600101908161047f9190611ab1565b5060408201518160020190816104959190611ab1565b506060820151816003015560808201518160040160006101000a81548173ffffffffffffffffffffffffffffffffffffffff021916908373ffffffffffffffffffffffffffffffffffffffff16021790555060a08201518160050190816104fc9190611ab1565b5060c08201518160060190816105129190611ab1565b509050506000808773ffffffffffffffffffffffffffffffffffffffff1673ffffffffffffffffffffffffffffffffffffffff168152602001908152602001600020600301600081548092919061056890611bb2565b91905055508573ffffffffffffffffffffffffffffffffffffffff167fa9ad46db2c884e6e6299f7bb4005897a4368a2f8a56ddd645874bb9498a03bab82876040516105b5929190611bfa565b60405180910390a2505050505050565b600360009054906101000a900473ffffffffffffffffffffffffffffffffffffffff1673ffffffffffffffffffffffffffffffffffffffff163373ffffffffffffffffffffffffffffffffffffffff1614610655576040517f08c379a000000000000000000000000000000000000000000000000000000000815260040161064c90611c9c565b60405180910390fd5b6001600260008373ffffffffffffffffffffffffffffffffffffffff1673ffffffffffffffffffffffffffffffffffffffff16815260200190815260200160002060006101000a81548160ff0219169083151502179055508073ffffffffffffffffffffffffffffffffffffffff167f2dc8105a7545248d0e354c4c6b02fb583071cc719fb4bef1ca74d72d475570bc60405160405180910390a250565b6000803373ffffffffffffffffffffffffffffffffffffffff1673ffffffffffffffffffffffffffffffffffffffff16815260200190815260200160002060000160009054906101000a900460ff1615610782576040517f08c379a000000000000000000000000000000000000000000000000000000000815260040161077990611d08565b60405180910390fd5b6040518060a001604052806001151581526020013373ffffffffffffffffffffffffffffffffffffffff16815260200183815260200182815260200160008152506000803373ffffffffffffffffffffffffffffffffffffffff1673ffffffffffffffffffffffffffffffffffffffff16815260200190815260200160002060008201518160000160006101000a81548160ff02191690831515021790555060208201518160000160016101000a81548173ffffffffffffffffffffffffffffffffffffffff021916908373ffffffffffffffffffffffffffffffffffffffff160217905550604082015181600101908161087d9190611ab1565b5060608201518160020190816108939190611ab1565b50608082015181600301559050503373ffffffffffffffffffffffffffffffffffffffff167fc85b128388b9c331a2a5485dce4cd0f3db9f7c279d327ce95d6d39d6c94644c7826040516108e79190611d28565b60405180910390a25050565b6000600260008373ffffffffffffffffffffffffffffffffffffffff1673ffffffffffffffffffffffffffffffffffffffff16815260200190815260200160002060009054906101000a900460ff169050919050565b6000803373ffffffffffffffffffffffffffffffffffffffff1673ffffffffffffffffffffffffffffffffffffffff16815260200190815260200160002060000160009054906101000a900460ff166109d7576040517f08c379a00000000000000000000000000000000000000000000000000000000081526004016109ce90611dbc565b60405180910390fd5b600062015180826109e89190611ddc565b426109f39190611e1e565b905080600460003373ffffffffffffffffffffffffffffffffffffffff1673ffffffffffffffffffffffffffffffffffffffff16815260200190815260200160002060008573ffffffffffffffffffffffffffffffffffffffff1673ffffffffffffffffffffffffffffffffffffffff168152602001908152602001600020819055508273ffffffffffffffffffffffffffffffffffffffff163373ffffffffffffffffffffffffffffffffffffffff167f2f187c4a7e968f93bf4a9722d261af8f14966748773eedce80e4492d724298b683604051610ad39190611e52565b60405180910390a3505050565b6000803373ffffffffffffffffffffffffffffffffffffffff1673ffffffffffffffffffffffffffffffffffffffff16815260200190815260200160002060000160009054906101000a900460ff16610b6e576040517f08c379a0000000000000000000000000000000000000000000000000000000008152600401610b6590611dbc565b60405180910390fd5b6000600460003373ffffffffffffffffffffffffffffffffffffffff1673ffffffffffffffffffffffffffffffffffffffff16815260200190815260200160002060008373ffffffffffffffffffffffffffffffffffffffff1673ffffffffffffffffffffffffffffffffffffffff1681526020019081526020016000208190555050565b6060806000806060806000803373ffffffffffffffffffffffffffffffffffffffff1673ffffffffffffffffffffffffffffffffffffffff16815260200190815260200160002060000160009054906101000a900460ff16610c8a576040517f08c379a0000000000000000000000000000000000000000000000000000000008152600401610c8190611885565b60405180910390fd5b6000803373ffffffffffffffffffffffffffffffffffffffff1673ffffffffffffffffffffffffffffffffffffffff168152602001908152602001600020600301548710610d0d576040517f08c379a0000000000000000000000000000000000000000000000000000000008152600401610d0490611eb9565b60405180910390fd5b6000600160003373ffffffffffffffffffffffffffffffffffffffff1673ffffffffffffffffffffffffffffffffffffffff16815260200190815260200160002060008981526020019081526020016000209050806001018160020182600301548360040160009054906101000a900473ffffffffffffffffffffffffffffffffffffffff168460050185600601858054610da7906118d4565b80601f0160208091040260200160405190810160405280929190818152602001828054610dd3906118d4565b8015610e205780601f10610df557610100808354040283529160200191610e20565b820191906000526020600020905b815481529060010190602001808311610e0357829003601f168201915b50505050509550848054610e33906118d4565b80601f0160208091040260200160405190810160405280929190818152602001828054610e5f906118d4565b8015610eac5780601f10610e8157610100808354040283529160200191610eac565b820191906000526020600020905b815481529060010190602001808311610e8f57829003601f168201915b50505050509450818054610ebf906118d4565b80601f0160208091040260200160405190810160405280929190818152602001828054610eeb906118d4565b8015610f385780601f10610f0d57610100808354040283529160200191610f38565b820191906000526020600020905b815481529060010190602001808311610f1b57829003601f168201915b50505050509150808054610f4b906118d4565b80601f0160208091040260200160405190810160405280929190818152602001828054610f77906118d4565b8015610fc45780601f10610f9957610100808354040283529160200191610fc4565b820191906000526020600020905b815481529060010190602001808311610fa757829003601f168201915b505050505090509650965096509650965096505091939550919395565b60608060008060003373ffffffffffffffffffffffffffffffffffffffff1673ffffffffffffffffffffffffffffffffffffffff16815260200190815260200160002060000160009054906101000a900460ff16611074576040517f08c379a000000000000000000000000000000000000000000000000000000000815260040161106b90611885565b60405180910390fd5b60008060003373ffffffffffffffffffffffffffffffffffffffff1673ffffffffffffffffffffffffffffffffffffffff1681526020019081526020016000209050806001018160020182600301548280546110cf906118d4565b80601f01602080910402602001604051908101604052809291908181526020018280546110fb906118d4565b80156111485780601f1061111d57610100808354040283529160200191611148565b820191906000526020600020905b81548152906001019060200180831161112b57829003601f168201915b5050505050925081805461115b906118d4565b80601f0160208091040260200160405190810160405280929190818152602001828054611187906118d4565b80156111d45780601f106111a9576101008083540402835291602001916111d4565b820191906000526020600020905b8154815290600101906020018083116111b757829003601f168201915b5050505050915093509350935050909192565b6000604051905090565b600080fd5b600080fd5b600073ffffffffffffffffffffffffffffffffffffffff82169050919050565b6000611226826111fb565b9050919050565b6112368161121b565b811461124157600080fd5b50565b6000813590506112538161122d565b92915050565b600080604083850312156112705761126f6111f1565b5b600061127e85828601611244565b925050602061128f85828601611244565b9150509250929050565b60008115159050919050565b6112ae81611299565b82525050565b60006020820190506112c960008301846112a5565b92915050565b600080fd5b600080fd5b6000601f19601f8301169050919050565b7f4e487b7100000000000000000000000000000000000000000000000000000000600052604160045260246000fd5b611322826112d9565b810181811067ffffffffffffffff82111715611341576113406112ea565b5b80604052505050565b60006113546111e7565b90506113608282611319565b919050565b600067ffffffffffffffff8211156113805761137f6112ea565b5b611389826112d9565b9050602081019050919050565b82818337600083830152505050565b60006113b86113b384611365565b61134a565b9050828152602081018484840111156113d4576113d36112d4565b5b6113df848285611396565b509392505050565b600082601f8301126113fc576113fb6112cf565b5b813561140c8482602086016113a5565b91505092915050565b600080600080600060a08688031215611431576114306111f1565b5b600061143f88828901611244565b955050602086013567ffffffffffffffff8111156114605761145f6111f6565b5b61146c888289016113e7565b945050604086013567ffffffffffffffff81111561148d5761148c6111f6565b5b611499888289016113e7565b935050606086013567ffffffffffffffff8111156114ba576114b96111f6565b5b6114c6888289016113e7565b925050608086013567ffffffffffffffff8111156114e7576114e66111f6565b5b6114f3888289016113e7565b9150509295509295909350565b600060208284031215611516576115156111f1565b5b600061152484828501611244565b91505092915050565b60008060408385031215611544576115436111f1565b5b600083013567ffffffffffffffff811115611562576115616111f6565b5b61156e858286016113e7565b925050602083013567ffffffffffffffff81111561158f5761158e6111f6565b5b61159b858286016113e7565b9150509250929050565b6000819050919050565b6115b8816115a5565b81146115c357600080fd5b50565b6000813590506115d5816115af565b92915050565b600080604083850312156115f2576115f16111f1565b5b600061160085828601611244565b9250506020611611858286016115c6565b9150509250929050565b600060208284031215611631576116306111f1565b5b600061163f848285016115c6565b91505092915050565b600081519050919050565b600082825260208201905092915050565b60005b83811015611682578082015181840152602081019050611667565b60008484015250505050565b600061169982611648565b6116a38185611653565b93506116b3818560208601611664565b6116bc816112d9565b840191505092915050565b6116d0816115a5565b82525050565b6116df8161121b565b82525050565b600060c08201905081810360008301526116ff818961168e565b90508181036020830152611713818861168e565b905061172260408301876116c7565b61172f60608301866116d6565b8181036080830152611741818561168e565b905081810360a0830152611755818461168e565b9050979650505050505050565b6000606082019050818103600083015261177c818661168e565b90508181036020830152611790818561168e565b905061179f60408301846116c7565b949350505050565b7f4f6e6c79207265676973746572656420646f63746f72732063616e207065726660008201527f6f726d207468697320616374696f6e0000000000000000000000000000000000602082015250565b6000611803602f83611653565b915061180e826117a7565b604082019050919050565b60006020820190508181036000830152611832816117f6565b9050919050565b7f50617469656e7420646f6573206e6f7420657869737400000000000000000000600082015250565b600061186f601683611653565b915061187a82611839565b602082019050919050565b6000602082019050818103600083015261189e81611862565b9050919050565b7f4e487b7100000000000000000000000000000000000000000000000000000000600052602260045260246000fd5b600060028204905060018216806118ec57607f821691505b6020821081036118ff576118fe6118a5565b5b50919050565b60008190508160005260206000209050919050565b60006020601f8301049050919050565b600082821b905092915050565b6000600883026119677fffffffffffffffffffffffffffffffffffffffffffffffffffffffffffffffff8261192a565b611971868361192a565b95508019841693508086168417925050509392505050565b6000819050919050565b60006119ae6119a96119a4846115a5565b611989565b6115a5565b9050919050565b6000819050919050565b6119c883611993565b6119dc6119d4826119b5565b848454611937565b825550505050565b600090565b6119f16119e4565b6119fc8184846119bf565b505050565b5b81811015611a2057611a156000826119e9565b600181019050611a02565b5050565b601f821115611a6557611a3681611905565b611a3f8461191a565b81016020851015611a4e578190505b611a62611a5a8561191a565b830182611a01565b50505b505050565b600082821c905092915050565b6000611a8860001984600802611a6a565b1980831691505092915050565b6000611aa18383611a77565b9150826002028217905092915050565b611aba82611648565b67ffffffffffffffff811115611ad357611ad26112ea565b5b611add82546118d4565b611ae8828285611a24565b600060209050601f831160018114611b1b5760008415611b09578287015190505b611b138582611a95565b865550611b7b565b601f198416611b2986611905565b60005b82811015611b5157848901518255600182019150602085019450602081019050611b2c565b86831015611b6e5784890151611b6a601f891682611a77565b8355505b6001600288020188555050505b505050505050565b7f4e487b7100000000000000000000000000000000000000000000000000000000600052601160045260246000fd5b6000611bbd826115a5565b91507fffffffffffffffffffffffffffffffffffffffffffffffffffffffffffffffff8203611bef57611bee611b83565b5b600182019050919050565b6000604082019050611c0f60008301856116c7565b8181036020830152611c21818461168e565b90509392505050565b7f4f6e6c792061646d696e2063616e20706572666f726d2074686973206163746960008201527f6f6e000000000000000000000000000000000000000000000000000000000000602082015250565b6000611c86602283611653565b9150611c9182611c2a565b604082019050919050565b60006020820190508181036000830152611cb581611c79565b9050919050565b7f50617469656e7420616c72656164792072656769737465726564000000000000600082015250565b6000611cf2601a83611653565b9150611cfd82611cbc565b602082019050919050565b60006020820190508181036000830152611d2181611ce5565b9050919050565b60006020820190508181036000830152611d42818461168e565b905092915050565b7f4f6e6c7920726567697374657265642070617469656e74732063616e2070657260008201527f666f726d207468697320616374696f6e00000000000000000000000000000000602082015250565b6000611da6603083611653565b9150611db182611d4a565b604082019050919050565b60006020820190508181036000830152611dd581611d99565b9050919050565b6000611de7826115a5565b9150611df2836115a5565b9250828202611e00816115a5565b91508282048414831517611e1757611e16611b83565b5b5092915050565b6000611e29826115a5565b9150611e34836115a5565b9250828201905080821115611e4c57611e4b611b83565b5b92915050565b6000602082019050611e6760008301846116c7565b92915050565b7f5265636f726420646f6573206e6f742065786973740000000000000000000000600082015250565b6000611ea3601583611653565b9150611eae82611e6d565b602082019050919050565b60006020820190508181036000830152611ed281611e96565b905091905056fea2646970667358221220f793901d325f3ae883b38f0938c35c4109d505c004f11a70f9520d66711eb5a264736f6c63430008110033",
  "immutableReferences": {},
  "source": "// SPDX-License-Identifier: MIT\r\npragma solidity ^0.8.0;\r\n\r\ncontract MedicalRecords {\r\n    // Structures\r\n    struct Patient {\r\n        bool exists;\r\n        address patientAddress;\r\n        string patientName;\r\n        string patientId; // e.g., SSN or custom ID\r\n        uint256 recordCount;\r\n        // Removed mapping from struct\r\n    }\r\n\r\n    struct Record {\r\n        uint256 id;\r\n        string recordType; // e.g., \"Prescription\", \"Lab Report\", \"Diagnosis\"\r\n        string recordHash; // IPFS hash of the encrypted record\r\n        uint256 timestamp;\r\n        address doctorAddress;\r\n        string doctorName;\r\n        string metadata; // Additional information in JSON format\r\n    }\r\n\r\n    // State variables\r\n    mapping(address => Patient) private patients;\r\n    // Two level mapping instead of nested mapping in struct\r\n    mapping(address => mapping(uint256 => Record)) private patientRecords;\r\n    mapping(address => bool) private doctors;\r\n    address private admin;\r\n\r\n    // Events\r\n    event PatientRegistered(address indexed patientAddress, string patientId);\r\n    event DoctorRegistered(address indexed doctorAddress);\r\n    event RecordAdded(\r\n        address indexed patientAddress,\r\n        uint256 recordId,\r\n        string recordType\r\n    );\r\n    event ConsentGiven(\r\n        address indexed patientAddress,\r\n        address indexed accessAddress,\r\n        uint256 expiryTime\r\n    );\r\n\r\n    // Access modifiers\r\n    modifier onlyAdmin() {\r\n        require(msg.sender == admin, \"Only admin can perform this action\");\r\n        _;\r\n    }\r\n\r\n    modifier onlyDoctor() {\r\n        require(\r\n            doctors[msg.sender],\r\n            \"Only registered doctors can perform this action\"\r\n        );\r\n        _;\r\n    }\r\n\r\n    modifier onlyPatient() {\r\n        require(\r\n            patients[msg.sender].exists,\r\n            \"Only registered patients can perform this action\"\r\n        );\r\n        _;\r\n    }\r\n\r\n    // Consent system\r\n    mapping(address => mapping(address => uint256)) private consents; // patient -> accessor -> expiry timestamp\r\n\r\n    constructor() {\r\n        admin = msg.sender;\r\n    }\r\n\r\n    // Admin functions\r\n    function registerDoctor(address _doctorAddress) public onlyAdmin {\r\n        doctors[_doctorAddress] = true;\r\n        emit DoctorRegistered(_doctorAddress);\r\n    }\r\n\r\n    // Patient functions\r\n    function registerPatient(string memory _name, string memory _id) public {\r\n        require(!patients[msg.sender].exists, \"Patient already registered\");\r\n\r\n        patients[msg.sender] = Patient({\r\n            exists: true,\r\n            patientAddress: msg.sender,\r\n            patientName: _name,\r\n            patientId: _id,\r\n            recordCount: 0\r\n        });\r\n\r\n        emit PatientRegistered(msg.sender, _id);\r\n    }\r\n\r\n    function addRecord(\r\n        address _patientAddress,\r\n        string memory _recordType,\r\n        string memory _recordHash,\r\n        string memory _doctorName,\r\n        string memory _metadata\r\n    ) public onlyDoctor {\r\n        require(patients[_patientAddress].exists, \"Patient does not exist\");\r\n\r\n        uint256 newRecordId = patients[_patientAddress].recordCount;\r\n\r\n        patientRecords[_patientAddress][newRecordId] = Record({\r\n            id: newRecordId,\r\n            recordType: _recordType,\r\n            recordHash: _recordHash,\r\n            timestamp: block.timestamp,\r\n            doctorAddress: msg.sender,\r\n            doctorName: _doctorName,\r\n            metadata: _metadata\r\n        });\r\n\r\n        patients[_patientAddress].recordCount++;\r\n\r\n        emit RecordAdded(_patientAddress, newRecordId, _recordType);\r\n    }\r\n\r\n    function grantConsent(\r\n        address _accessor,\r\n        uint256 _durationInDays\r\n    ) public onlyPatient {\r\n        uint256 expiryTime = block.timestamp + (_durationInDays * 1 days);\r\n        consents[msg.sender][_accessor] = expiryTime;\r\n        emit ConsentGiven(msg.sender, _accessor, expiryTime);\r\n    }\r\n\r\n    function revokeConsent(address _accessor) public onlyPatient {\r\n        consents[msg.sender][_accessor] = 0;\r\n    }\r\n\r\n    // View functions\r\n    function getPatientDetails()\r\n        public\r\n        view\r\n        returns (string memory, string memory, uint256)\r\n    {\r\n        require(patients[msg.sender].exists, \"Patient does not exist\");\r\n        Patient storage patient = patients[msg.sender];\r\n        return (patient.patientName, patient.patientId, patient.recordCount);\r\n    }\r\n\r\n    function getRecordDetails(\r\n        uint256 _recordId\r\n    )\r\n        public\r\n        view\r\n        returns (\r\n            string memory,\r\n            string memory,\r\n            uint256,\r\n            address,\r\n            string memory,\r\n            string memory\r\n        )\r\n    {\r\n        require(patients[msg.sender].exists, \"Patient does not exist\");\r\n        require(\r\n            _recordId < patients[msg.sender].recordCount,\r\n            \"Record does not exist\"\r\n        );\r\n\r\n        Record storage record = patientRecords[msg.sender][_recordId];\r\n        return (\r\n            record.recordType,\r\n            record.recordHash,\r\n            record.timestamp,\r\n            record.doctorAddress,\r\n            record.doctorName,\r\n            record.metadata\r\n        );\r\n    }\r\n\r\n    function checkConsent(\r\n        address _patientAddress,\r\n        address _accessor\r\n    ) public view returns (bool) {\r\n        uint256 expiryTime = consents[_patientAddress][_accessor];\r\n        return (expiryTime > block.timestamp);\r\n    }\r\n\r\n    function isDoctor(address _address) public view returns (bool) {\r\n        return doctors[_address];\r\n    }\r\n}\r\n",
  "sourcePath": "D:\\Ashaya Sah\\Himal AI\\test-contract\\contracts\\MedicalRecords.sol",
  "compiler": {
    "name": "solc",
    "version": "0.8.17+commit.8df45f5f.Emscripten.clang"
  },
  "schemaVersion": "3.4.16",
  "updatedAt": "2025-04-10T16:33:23.451Z",
  "networkType": "ethereum",
  "devdoc": {
    "kind": "dev",
    "methods": {},
    "version": 1
  },
  "userdoc": {
    "kind": "user",
    "methods": {},
    "version": 1
  }
}